{
  "_format": "hh-sol-artifact-1",
  "contractName": "V2XAuth",
  "sourceName": "contracts/V2XAuth.sol",
  "abi": [
    {
      "inputs": [],
      "stateMutability": "nonpayable",
      "type": "constructor"
    },
    {
      "inputs": [],
      "name": "InsufficientBalance",
      "type": "error"
    },
    {
      "inputs": [],
      "name": "NotAuthorized",
      "type": "error"
    },
    {
      "inputs": [],
      "name": "NotOwner",
      "type": "error"
    },
    {
      "inputs": [],
      "name": "VehicleAlreadyRegistered",
      "type": "error"
    },
    {
      "inputs": [],
      "name": "VehicleAlreadyRevoked",
      "type": "error"
    },
    {
      "inputs": [],
      "name": "VehicleNotRegistered",
      "type": "error"
    },
    {
      "anonymous": false,
      "inputs": [
        {
          "indexed": true,
          "internalType": "bytes32",
          "name": "vehicleIdHash",
          "type": "bytes32"
        },
        {
          "indexed": false,
          "internalType": "uint256",
          "name": "timestamp",
          "type": "uint256"
        },
        {
          "indexed": false,
          "internalType": "string",
          "name": "location",
          "type": "string"
        },
        {
          "indexed": false,
          "internalType": "uint256",
          "name": "speed",
          "type": "uint256"
        },
        {
          "indexed": false,
          "internalType": "string",
          "name": "details",
          "type": "string"
        }
      ],
      "name": "AccidentReported",
      "type": "event"
    },
    {
      "anonymous": false,
      "inputs": [
        {
          "indexed": true,
          "internalType": "address",
          "name": "vehicle",
          "type": "address"
        },
        {
          "indexed": false,
          "internalType": "uint256",
          "name": "amount",
          "type": "uint256"
        }
      ],
      "name": "Deposit",
      "type": "event"
    },
    {
      "anonymous": false,
      "inputs": [
        {
          "indexed": true,
          "internalType": "address",
          "name": "vehicle",
          "type": "address"
        },
        {
          "indexed": true,
          "internalType": "address",
          "name": "operator",
          "type": "address"
        },
        {
          "indexed": false,
          "internalType": "uint256",
          "name": "amount",
          "type": "uint256"
        }
      ],
      "name": "TollPaid",
      "type": "event"
    },
    {
      "anonymous": false,
      "inputs": [
        {
          "indexed": true,
          "internalType": "bytes32",
          "name": "vehicleIdHash",
          "type": "bytes32"
        },
        {
          "indexed": true,
          "internalType": "address",
          "name": "vehicleAddress",
          "type": "address"
        }
      ],
      "name": "VehicleRegistered",
      "type": "event"
    },
    {
      "anonymous": false,
      "inputs": [
        {
          "indexed": true,
          "internalType": "bytes32",
          "name": "vehicleIdHash",
          "type": "bytes32"
        },
        {
          "indexed": true,
          "internalType": "address",
          "name": "vehicleAddress",
          "type": "address"
        }
      ],
      "name": "VehicleRevoked",
      "type": "event"
    },
    {
      "inputs": [
        {
          "internalType": "address",
          "name": "",
          "type": "address"
        }
      ],
      "name": "balances",
      "outputs": [
        {
          "internalType": "uint256",
          "name": "",
          "type": "uint256"
        }
      ],
      "stateMutability": "view",
      "type": "function"
    },
    {
      "inputs": [],
      "name": "deposit",
      "outputs": [],
      "stateMutability": "payable",
      "type": "function"
    },
    {
      "inputs": [
        {
          "internalType": "bytes32",
          "name": "vehicleIdHash",
          "type": "bytes32"
        }
      ],
      "name": "getVehicle",
      "outputs": [
        {
          "components": [
            {
              "internalType": "address",
              "name": "vehicleAddress",
              "type": "address"
            },
            {
              "internalType": "bool",
              "name": "active",
              "type": "bool"
            },
            {
              "internalType": "uint256",
              "name": "registeredAt",
              "type": "uint256"
            },
            {
              "internalType": "uint256",
              "name": "revokedAt",
              "type": "uint256"
            }
          ],
          "internalType": "struct V2XAuth.Vehicle",
          "name": "",
          "type": "tuple"
        }
      ],
      "stateMutability": "view",
      "type": "function"
    },
    {
      "inputs": [
        {
          "internalType": "bytes32",
          "name": "vehicleIdHash",
          "type": "bytes32"
        }
      ],
      "name": "isVehicleActive",
      "outputs": [
        {
          "internalType": "bool",
          "name": "",
          "type": "bool"
        }
      ],
      "stateMutability": "view",
      "type": "function"
    },
    {
      "inputs": [],
      "name": "owner",
      "outputs": [
        {
          "internalType": "address",
          "name": "",
          "type": "address"
        }
      ],
      "stateMutability": "view",
      "type": "function"
    },
    {
      "inputs": [
        {
          "internalType": "address",
          "name": "operator",
          "type": "address"
        },
        {
          "internalType": "uint256",
          "name": "amount",
          "type": "uint256"
        }
      ],
      "name": "payToll",
      "outputs": [],
      "stateMutability": "nonpayable",
      "type": "function"
    },
    {
      "inputs": [
        {
          "internalType": "bytes32",
          "name": "vehicleIdHash",
          "type": "bytes32"
        },
        {
          "internalType": "address",
          "name": "vehicleAddress",
          "type": "address"
        }
      ],
      "name": "registerVehicle",
      "outputs": [],
      "stateMutability": "nonpayable",
      "type": "function"
    },
    {
      "inputs": [
        {
          "internalType": "bytes32",
          "name": "vehicleIdHash",
          "type": "bytes32"
        },
        {
          "internalType": "string",
          "name": "location",
          "type": "string"
        },
        {
          "internalType": "uint256",
          "name": "speed",
          "type": "uint256"
        },
        {
          "internalType": "string",
          "name": "details",
          "type": "string"
        }
      ],
      "name": "reportAccident",
      "outputs": [],
      "stateMutability": "nonpayable",
      "type": "function"
    },
    {
      "inputs": [
        {
          "internalType": "bytes32",
          "name": "vehicleIdHash",
          "type": "bytes32"
        }
      ],
      "name": "revokeVehicle",
      "outputs": [],
      "stateMutability": "nonpayable",
      "type": "function"
    },
    {
      "inputs": [],
      "name": "withdraw",
      "outputs": [],
      "stateMutability": "nonpayable",
      "type": "function"
    }
  ],
  "bytecode": "0x608060405234801561001057600080fd5b50336000806101000a81548173ffffffffffffffffffffffffffffffffffffffff021916908373ffffffffffffffffffffffffffffffffffffffff160217905550611340806100606000396000f3fe6080604052600436106100915760003560e01c80638da5cb5b116100595780638da5cb5b1461018d578063cbba7390146101b8578063d0e30db0146101e1578063e0194851146101eb578063fab6ff791461021457610091565b80632752dcf21461009657806327e235e3146100d35780633ccfd60b146101105780633d05f82d14610127578063501df3f114610150575b600080fd5b3480156100a257600080fd5b506100bd60048036038101906100b89190610d6b565b61023d565b6040516100ca9190610db3565b60405180910390f35b3480156100df57600080fd5b506100fa60048036038101906100f59190610e2c565b6102cc565b6040516101079190610e72565b60405180910390f35b34801561011c57600080fd5b506101256102e4565b005b34801561013357600080fd5b5061014e60048036038101906101499190610e8d565b610457565b005b34801561015c57600080fd5b5061017760048036038101906101729190610d6b565b6106ae565b6040516101849190610f4f565b60405180910390f35b34801561019957600080fd5b506101a2610760565b6040516101af9190610f79565b60405180910390f35b3480156101c457600080fd5b506101df60048036038101906101da9190610fc0565b610784565b005b6101e9610912565b005b3480156101f757600080fd5b50610212600480360381019061020d9190610d6b565b6109b8565b005b34801561022057600080fd5b5061023b60048036038101906102369190611065565b610bb8565b005b600080600160008481526020019081526020016000209050600073ffffffffffffffffffffffffffffffffffffffff168160000160009054906101000a900473ffffffffffffffffffffffffffffffffffffffff1673ffffffffffffffffffffffffffffffffffffffff16141580156102c457508060000160149054906101000a900460ff165b915050919050565b60026020528060005260406000206000915090505481565b6000600260003373ffffffffffffffffffffffffffffffffffffffff1673ffffffffffffffffffffffffffffffffffffffff16815260200190815260200160002054905060008103610362576040517ff4d678b800000000000000000000000000000000000000000000000000000000815260040160405180910390fd5b6000600260003373ffffffffffffffffffffffffffffffffffffffff1673ffffffffffffffffffffffffffffffffffffffff1681526020019081526020016000208190555060003373ffffffffffffffffffffffffffffffffffffffff16826040516103cd9061113d565b60006040518083038185875af1925050503d806000811461040a576040519150601f19603f3d011682016040523d82523d6000602084013e61040f565b606091505b5050905080610453576040517f08c379a000000000000000000000000000000000000000000000000000000000815260040161044a906111af565b60405180910390fd5b5050565b60008054906101000a900473ffffffffffffffffffffffffffffffffffffffff1673ffffffffffffffffffffffffffffffffffffffff163373ffffffffffffffffffffffffffffffffffffffff16146104dc576040517f30cd747100000000000000000000000000000000000000000000000000000000815260040160405180910390fd5b6000600160008481526020019081526020016000209050600073ffffffffffffffffffffffffffffffffffffffff168160000160009054906101000a900473ffffffffffffffffffffffffffffffffffffffff1673ffffffffffffffffffffffffffffffffffffffff161415801561056257508060000160149054906101000a900460ff165b15610599576040517f28ea1d0a00000000000000000000000000000000000000000000000000000000815260040160405180910390fd5b60405180608001604052808373ffffffffffffffffffffffffffffffffffffffff16815260200160011515815260200142815260200160008152506001600085815260200190815260200160002060008201518160000160006101000a81548173ffffffffffffffffffffffffffffffffffffffff021916908373ffffffffffffffffffffffffffffffffffffffff16021790555060208201518160000160146101000a81548160ff02191690831515021790555060408201518160010155606082015181600201559050508173ffffffffffffffffffffffffffffffffffffffff16837fa40eac65f0572000b273bc0a3edded6b68b5f4cdc71a2f48c6b57dbf0cde0c7d60405160405180910390a3505050565b6106b6610ceb565b600160008381526020019081526020016000206040518060800160405290816000820160009054906101000a900473ffffffffffffffffffffffffffffffffffffffff1673ffffffffffffffffffffffffffffffffffffffff1673ffffffffffffffffffffffffffffffffffffffff1681526020016000820160149054906101000a900460ff16151515158152602001600182015481526020016002820154815250509050919050565b60008054906101000a900473ffffffffffffffffffffffffffffffffffffffff1681565b80600260003373ffffffffffffffffffffffffffffffffffffffff1673ffffffffffffffffffffffffffffffffffffffff1681526020019081526020016000205410156107fd576040517ff4d678b800000000000000000000000000000000000000000000000000000000815260040160405180910390fd5b80600260003373ffffffffffffffffffffffffffffffffffffffff1673ffffffffffffffffffffffffffffffffffffffff168152602001908152602001600020600082825461084c91906111fe565b9250508190555080600260008473ffffffffffffffffffffffffffffffffffffffff1673ffffffffffffffffffffffffffffffffffffffff16815260200190815260200160002060008282546108a29190611232565b925050819055508173ffffffffffffffffffffffffffffffffffffffff163373ffffffffffffffffffffffffffffffffffffffff167f4549d5878723c6b3a827c7d0c2ed7266a828be3c951b89a3d86a0af783b02e0f836040516109069190610e72565b60405180910390a35050565b34600260003373ffffffffffffffffffffffffffffffffffffffff1673ffffffffffffffffffffffffffffffffffffffff16815260200190815260200160002060008282546109619190611232565b925050819055503373ffffffffffffffffffffffffffffffffffffffff167fe1fffcc4923d04b559f4d29a8bfc6cda04eb5b0d3c460751c2402c5c5cc9109c346040516109ae9190610e72565b60405180910390a2565b60008054906101000a900473ffffffffffffffffffffffffffffffffffffffff1673ffffffffffffffffffffffffffffffffffffffff163373ffffffffffffffffffffffffffffffffffffffff1614610a3d576040517f30cd747100000000000000000000000000000000000000000000000000000000815260040160405180910390fd5b6000600160008381526020019081526020016000209050600073ffffffffffffffffffffffffffffffffffffffff168160000160009054906101000a900473ffffffffffffffffffffffffffffffffffffffff1673ffffffffffffffffffffffffffffffffffffffff1603610ade576040517f23ac202a00000000000000000000000000000000000000000000000000000000815260040160405180910390fd5b8060000160149054906101000a900460ff16610b26576040517fef6109a200000000000000000000000000000000000000000000000000000000815260040160405180910390fd5b60008160000160146101000a81548160ff0219169083151502179055504281600201819055508060000160009054906101000a900473ffffffffffffffffffffffffffffffffffffffff1673ffffffffffffffffffffffffffffffffffffffff16827f750cabd9dbcb376e04878140bace8e5d0961181a01b53180cbcb4a5adff46ecd60405160405180910390a35050565b60006001600088815260200190815260200160002090503373ffffffffffffffffffffffffffffffffffffffff168160000160009054906101000a900473ffffffffffffffffffffffffffffffffffffffff1673ffffffffffffffffffffffffffffffffffffffff1614610c58576040517fea8e4eb500000000000000000000000000000000000000000000000000000000815260040160405180910390fd5b8060000160149054906101000a900460ff16610ca0576040517f23ac202a00000000000000000000000000000000000000000000000000000000815260040160405180910390fd5b867fe877811ec96a95cfb5ba0897baef0e70d3ffd328d427d8aa07766339ce8a3f1b428888888888604051610cda969594939291906112b3565b60405180910390a250505050505050565b6040518060800160405280600073ffffffffffffffffffffffffffffffffffffffff16815260200160001515815260200160008152602001600081525090565b600080fd5b600080fd5b6000819050919050565b610d4881610d35565b8114610d5357600080fd5b50565b600081359050610d6581610d3f565b92915050565b600060208284031215610d8157610d80610d2b565b5b6000610d8f84828501610d56565b91505092915050565b60008115159050919050565b610dad81610d98565b82525050565b6000602082019050610dc86000830184610da4565b92915050565b600073ffffffffffffffffffffffffffffffffffffffff82169050919050565b6000610df982610dce565b9050919050565b610e0981610dee565b8114610e1457600080fd5b50565b600081359050610e2681610e00565b92915050565b600060208284031215610e4257610e41610d2b565b5b6000610e5084828501610e17565b91505092915050565b6000819050919050565b610e6c81610e59565b82525050565b6000602082019050610e876000830184610e63565b92915050565b60008060408385031215610ea457610ea3610d2b565b5b6000610eb285828601610d56565b9250506020610ec385828601610e17565b9150509250929050565b610ed681610dee565b82525050565b610ee581610d98565b82525050565b610ef481610e59565b82525050565b608082016000820151610f106000850182610ecd565b506020820151610f236020850182610edc565b506040820151610f366040850182610eeb565b506060820151610f496060850182610eeb565b50505050565b6000608082019050610f646000830184610efa565b92915050565b610f7381610dee565b82525050565b6000602082019050610f8e6000830184610f6a565b92915050565b610f9d81610e59565b8114610fa857600080fd5b50565b600081359050610fba81610f94565b92915050565b60008060408385031215610fd757610fd6610d2b565b5b6000610fe585828601610e17565b9250506020610ff685828601610fab565b9150509250929050565b600080fd5b600080fd5b600080fd5b60008083601f84011261102557611024611000565b5b8235905067ffffffffffffffff81111561104257611041611005565b5b60208301915083600182028301111561105e5761105d61100a565b5b9250929050565b6000806000806000806080878903121561108257611081610d2b565b5b600061109089828a01610d56565b965050602087013567ffffffffffffffff8111156110b1576110b0610d30565b5b6110bd89828a0161100f565b955095505060406110d089828a01610fab565b935050606087013567ffffffffffffffff8111156110f1576110f0610d30565b5b6110fd89828a0161100f565b92509250509295509295509295565b600081905092915050565b50565b600061112760008361110c565b915061113282611117565b600082019050919050565b60006111488261111a565b9150819050919050565b600082825260208201905092915050565b7f4661696c656420746f2073656e64204574686572000000000000000000000000600082015250565b6000611199601483611152565b91506111a482611163565b602082019050919050565b600060208201905081810360008301526111c88161118c565b9050919050565b7f4e487b7100000000000000000000000000000000000000000000000000000000600052601160045260246000fd5b600061120982610e59565b915061121483610e59565b925082820390508181111561122c5761122b6111cf565b5b92915050565b600061123d82610e59565b915061124883610e59565b92508282019050808211156112605761125f6111cf565b5b92915050565b82818337600083830152505050565b6000601f19601f8301169050919050565b60006112928385611152565b935061129f838584611266565b6112a883611275565b840190509392505050565b60006080820190506112c86000830189610e63565b81810360208301526112db818789611286565b90506112ea6040830186610e63565b81810360608301526112fd818486611286565b905097965050505050505056fea2646970667358221220f33bc3535eb71374fc9af9b8d7afdb0dcfbdb51f26702cf9369cf9acfd96817264736f6c63430008140033",
  "linkReferences": {},
  "deployedLinkReferences": {}
}